:100000000C9447000C948E020C948E020C948E0279
:100010000C948E020C948E020C948E020C948E0220
:100020000C948E020C948E020C948E020C948E0210
:100030000C948E020C948E020C948E020C948E0200
:100040000C948E020C948E020C948E020C948E02F0
:100050000C948E0200A500A68000A600A78000A731
:1000600000A8800060006C0005200084008F00055F
:1000700044006C007800052C008F009A00054F00AA
:10008000780084000538009A00A500055A00112464
:100090001FBECFE5D4E0DEBFCDBFE4E5F0E040E039
:1000A00017C0B591A59135912591059107FD0CC01B
:1000B00095918591EF01F92FE82F05900D92A217E8
:1000C000B307D9F7FE0104C01D92A217B307E1F7E9
:1000D000ED38F40731F70E9471000C946F00F8942A
:0200E000FFCF50
:1000E2000E9423020E94530261E083E090E00E949A
:1000F2002D0160E070E082E090E00E94020261E087
:1001020070E083E090E00E94020264E083E090E00D
:100112000E942D0160E070E084E090E00E94C00146
:1001220061E070E087E090E00E94E10163E087E037
:1001320090E00E942D0160E070E080E090E00E947B
:10014200C00161E070E082E090E00E94E10163E0C2
:1001520082E090E00E942D01C1E082E090E00E94E6
:100162006C02892B21F18091A7008C278093A70034
:1001720083E090E00E9483028091A700882339F0F7
:100182000E94530284E890E00E94440206C00E944A
:10019200530280E690E00E9444022FEF83EC99E044
:1001A200215080409040E1F700C00000D6CF84E0AB
:1001B20090E00E946002892B21F18091A6008C2799
:1001C2008093A60087E090E00E9478028091A600CA
:1001D200882339F00E9453028FE890E00E94440283
:1001E20006C00E9453028CE690E00E9444022FEF68
:1001F20083EC99E0215080409040E1F700C000007C
:10020200ACCF80E090E00E946002892B09F4A5CF78
:100212008091A5008C278093A50082E090E00E9447
:1002220078028091A500882339F00E9453028AE95E
:1002320090E00E94440206C00E94530288E790E0C8
:100242000E9444022FEF83EC99E0215080409040BD
:08025200E1F700C0000081CFBC
:10025A006230B9F018F4613031F008956330F9F082
:10026A00643059F108954BB321E030E0B90102C07E
:10027A00660F771F8A95E2F7CB01809584238BBBA3
:10028A00089548B321E030E0B90102C0660F771F34
:10029A008A95E2F7CB018095842388BB089545B3FC
:1002AA0021E030E0B90102C0660F771F8A95E2F7B4
:1002BA00CB018095842385BB089542B321E030E0C9
:1002CA00B90102C0660F771F8A95E2F7CB018095C4
:0602DA00842382BB08959D
:1002E0009BB39F70282F207F922B9BBBC198C39AF2
:1002F00035E33A95F1F70000C398EFE3FFE131975A
:10030000F1F700C000002BB32F70F0E18F9FC00108
:100310001124822B8BBBC39A35E03A95F1F700008C
:10032000C3988FE39FE10197F1F700C000000895A3
:100330009BB39F70282F207F922B9BBBC19AC39A9F
:1003400035E33A95F1F70000C398EFE1F3E0319718
:10035000F1F700C000002BB32F70F0E18F9FC001B8
:100360001124822B8BBBC39A35E33A95F1F7000039
:10037000C3988FE59DE60197F1F700C0000008954E
:100380006115710581F061307105D1F447B321E049
:1003900030E0B90102C0660F771F8A95E2F7CB0102
:1003A000842B87BB089547B321E030E0B90102C038
:1003B000660F771F8A95E2F7CB018095842387BB70
:0203C00008959E
:1003C2006115710581F061307105D1F444B321E00A
:1003D20030E0B90102C0660F771F8A95E2F7CB01C0
:1003E200842B84BB089544B321E030E0B90102C0FC
:1003F200660F771F8A95E2F7CB018095842384BB31
:0204020008955B
:100404006115710581F061307105D1F441B321E0CA
:1004140030E0B90102C0660F771F8A95E2F7CB017D
:10042400842B81BB089541B321E030E0B90102C0BF
:10043400660F771F8A95E2F7CB018095842381BBF1
:02044400089519
:100446008FEF8ABB8FE087BBC2982FEF89EF90E0D2
:10045600215080409040E1F700C0000083E30E94F5
:10046600700182E30E94700188E20E9470018CE0B4
:100476000E94700186E00E94700181E00E94700176
:020486000895D7
:10048800CF93DF93EC018881882331F021960E9475
:0E049800980189918111FBCFDF91CF910895DA
:1004A60081E00E9470018FE39FE10197F1F700C0A0
:0A04B600000080E80E947001089524
:1004C00026B330E0A90102C0559547958A95E2F719
:0804D000CA018170992708950B
:1004D80020B330E0A90102C0559547958A95E2F707
:0804E800CA01817099270895F3
:1004F00095B321E030E002C0220F331F8A95E2F766
:06050000292725BB089528
:1005060092B321E030E002C0220F331F8A95E2F752
:06051600292722BB089515
:04051C000C9400003B
:0C0520004C454432206973204F464600D1
:0C052C004C454431206973204F464600C6
:0C0538004C454430206973204F464600BB
:0B0544004C454432206973204F4E00EC
:0B054F004C454431206973204F4E00E2
:0B055A004C454430206973204F4E00D8
:00000001FF
